:020000040800F2
:1000000000000520C10400081105000811050008C2
:100010001105000811050008110500080000000086
:1000200000000000000000000000000011050008B2
:100030001105000800000000110500081105000866
:100040001105000811050008110500081105000838
:100050001105000811050008110500081105000828
:100060001105000811050008110500081105000818
:100070001105000811050008110500081105000808
:1000800011050008110500081105000811050008F8
:1000900011050008110500081105000811050008E8
:1000A00011050008110500081105000811050008D8
:1000B00011050008110500081105000811050008C8
:1000C00011050008110500081105000811050008B8
:1000D00011050008110500081105000811050008A8
:1000E0001105000811050008110500081105000898
:1000F0001105000811050008110500081105000888
:100100001105000811050008110500081105000877
:100110001105000811050008110500081105000867
:100120001105000811050008110500081105000857
:100130001105000811050008110500081105000847
:100140001105000811050008110500081105000837
:100150001105000811050008110500081105000827
:100160001105000811050008110500081105000817
:100170001105000811050008110500081105000807
:100180001105000800000000110500081105000815
:1001900011050008110500081105000811050008E7
:1001A00011050008110500081105000811050008D7
:1001B00011050008110500081105000811050008C7
:0801C0001105000811050008FB
:1001C80010B5054C237833B9044B13B10448AFF389
:1001D80000800123237010BD0400002000000000EF
:1001E8005C05000808B5034B1BB103490348AFF38E
:1001F800008008BD00000000080000205C05000821
:1002080080B582B000AF00F023F80E4B1B6B0D4A8F
:1002180043F0020313630C4B1B680B4A43F00103C2
:10022800136000237B6002E07B6801337B607B689E
:10023800064A9342F8DD044B5B69034A83F00103E5
:100248005361EEE700380240000402409F86010037
:1002580080B582B000AF4C4B4FF0FF321A614A4B69
:1002680000221A61484B4FF0FF325A61464B002278
:100278005A61454B4FF0FF321A62434B00221A6213
:10028800414B4FF0FF325A623F4B00225A623E4BBD
:100298001B6C3D4A43F0805313643B4B1B683A4A3E
:1002A80043F480231360384B1B68374A43F4803388
:1002B800136000BF344B1B6803F40033002BF9D0E4
:1002C800314B1B68304A23F08073136000BF2E4BFC
:1002D8001B6803F00073002BF9D12B4B9B682A4A4B
:1002E80043F41443936000237B607B6843F48003EA
:1002F8007B607B6843F019037B607B6843F4D843D9
:100308007B60214A7B6853601F4B1B681E4A43F081
:100318008073136000BF1C4B1B6803F00073002B35
:10032800F9D01A4B1B68194A43F48033136000BF95
:10033800164B5B6803F48033002BF9D0134B1B6812
:10034800124A43F40033136000BF104B5B6803F498
:100358000033002BF9D00E4B1B680D4A43F00703FE
:10036800136000BF084B1B6803F00073002BF9D023
:10037800054B9B68044A43F00203936000F01CF8A5
:1003880000BF0837BD4680BD0038024000700040FD
:10039800003C024080B400AF064BD3F88830054AD1
:1003A80043F47003C2F8883000BFBD465DF8047B93
:1003B800704700BF00ED00E080B487B000AF0023B5
:1003C8003B6100237B610223FB600023BB600223A7
:1003D8007B60344B9B6803F00C033B613B69082B43
:1003E80011D03B69082B44D83B69002B03D03B69EB
:1003F800042B04D03DE02C4B2C4A1A603DE02A4BDC
:100408002B4A1A6039E0274B5B689B0D03F0010308
:10041800BB60244B5B6803F03F037B60BB68002B29
:100428000CD0234A7B68B2FBF3F31E4A5268920948
:10043800C2F3080202FB03F37B610BE01B4A7B68F3
:10044800B2FBF3F3174A52689209C2F3080202FB9F
:1004580003F37B61134B5B681B0C03F0030301334D
:100468005B00FB607A69FB68B2FBF3F30E4A13602A
:1004780003E00D4B0D4A1A6000BF0A4B9B681B092D
:1004880003F00F030B4AD35C3B61074B1A683B69C7
:1004980022FA03F3044A136000BF1C37BD465DF817
:1004A800047B704700380240000000200024F4005C
:1004B80040787D01740500080D488546FFF76AFFFE
:1004C8000C480D490D4A002302E0D458C4500433A7
:1004D800C4188C42F9D30A4A0A4C002301E013607D
:1004E8000432A242FBD300F011F8FFF789FEFEE7C1
:1004F8000000052000000020040000208C050008F2
:100508000400002020000020FEE7000070B50D4D1B
:100518000D4C641BA4100026A64209D10B4D0C4CAF
:1005280000F018F8641BA4100026A64205D170BD7F
:1005380055F8043B98470136EEE755F8043B9847D1
:100548000136F2E7840500088405000884050008E0
:1005580088050008F8B500BFF8BC08BC9E4670477F
:0C056800F8B500BFF8BC08BC9E46704708
:10057400000000000000000001020304060708094F
:04058400ED0100087D
:04058800C90100089D
:04058C000024F40053
:04000005080004C12A
:00000001FF
