:020000040800F2
:100000000000052069040008B9040008B9040008CC
:10001000B9040008B9040008B90400080000000091
:10002000000000000000000000000000B90400080B
:10003000B904000800000000B9040008B904000871
:10004000B9040008B9040008B9040008B90400089C
:10005000B9040008B9040008B9040008B90400088C
:10006000B9040008B9040008B9040008B90400087C
:10007000B9040008B9040008B9040008B90400086C
:10008000B9040008B9040008B9040008B90400085C
:10009000B9040008B9040008B9040008B90400084C
:1000A000B9040008B9040008B9040008B90400083C
:1000B000B9040008B9040008B9040008B90400082C
:1000C000B9040008B9040008B9040008B90400081C
:1000D000B9040008B9040008B9040008B90400080C
:1000E000B9040008B9040008B9040008B9040008FC
:1000F000B9040008B9040008B9040008B9040008EC
:10010000B9040008B9040008B9040008B9040008DB
:10011000B9040008B9040008B9040008B9040008CB
:10012000B9040008B9040008B9040008B9040008BB
:10013000B9040008B9040008B9040008B9040008AB
:10014000B9040008B9040008B9040008B90400089B
:10015000B9040008B9040008B9040008B90400088B
:10016000B9040008B9040008B9040008B90400087B
:10017000B9040008B9040008B9040008B90400086B
:10018000B904000800000000B9040008B904000820
:10019000B9040008B9040008B9040008B90400084B
:1001A000B9040008B9040008B9040008B90400083B
:1001B000B9040008B9040008B9040008B90400082B
:0801C000B9040008B9040008AD
:1001C80010B5054C237833B9044B13B10448AFF389
:1001D80000800123237010BD0400002000000000EF
:1001E8000405000808B5034B1BB103490348AFF3E6
:1001F800008008BD00000000080000200405000879
:1002080080B582B000AF00F023F80E4B1B6B0D4A8F
:1002180043F0020313630C4B1B680B4A43F00103C2
:10022800136000237B6002E07B6801337B607B689E
:10023800064A9342F8DD044B5B69034A83F00103E5
:100248005361EEE700380240000402409F86010037
:1002580080B582B000AF374B4FF0FF321A61354B93
:1002680000221A61334B4FF0FF325A61314B0022A2
:100278005A61304B4FF0FF321A622E4B00221A623D
:100288002C4B4FF0FF325A622A4B00225A62294BFC
:100298001B6C284A43F080531364264B1B68254A7D
:1002A80043F00103136000BF224B1B6803F00203F5
:1002B800002BF9D01F4B1B681E4A23F08073136074
:1002C80000BF1C4B1B6803F00073002BF9D1194BBE
:1002D8009B68184A43F08003936000237B607B6827
:1002E80043F008037B607B6843F480537B60114ACA
:1002F8007B6853600F4B1B680E4A43F08073136092
:1003080000BF0C4B1B6803F00073002BF9D00A4B9D
:100318001B68094A43F001031360064B9B68054AB2
:1003280043F00203936000F01BF800BF0837BD4696
:1003380080BD00BF00380240003C024080B400AFDE
:10034800064BD3F88830054A43F47003C2F8883066
:1003580000BFBD465DF8047B704700BF00ED00E0BC
:1003680080B487B000AF00233B6100237B61022388
:10037800FB600023BB6002237B60344B9B6803F067
:100388000C033B613B69082B11D03B69082B44D80F
:100398003B69002B03D03B69042B04D03DE02C4B78
:1003A8002C4A1A603DE02A4B2B4A1A6039E0274B49
:1003B8005B689B0D03F00103BB60244B5B6803F093
:1003C8003F037B60BB68002B0CD0234A7B68B2FBE1
:1003D800F3F31E4A52689209C2F3080202FB03F3C0
:1003E8007B610BE01B4A7B68B2FBF3F3174A526848
:1003F8009209C2F3080202FB03F37B61134B5B68AB
:100408001B0C03F0030301335B00FB607A69FB6894
:10041800B2FBF3F30E4A136003E00D4B0D4A1A606A
:1004280000BF0A4B9B681B0903F00F030B4AD35C00
:100438003B61074B1A683B6922FA03F3044A1360CD
:1004480000BF1C37BD465DF8047B7047003802408A
:10045800000000200024F40040787D011C050008FD
:100468000D488546FFF76AFF0C480D490D4A0023E1
:1004780002E0D458C4500433C4188C42F9D30A4A51
:100488000A4C002301E013600432A242FBD300F0BF
:1004980011F8FFF7B5FEFEE7000005200000002078
:1004A800040000203405000804000020200000207B
:1004B800FEE7000070B50D4D0D4C641BA41000261E
:1004C800A64209D10B4D0C4C00F018F8641BA4107F
:1004D8000026A64205D170BD55F8043B9847013661
:1004E800EEE755F8043B98470136F2E72C0500087B
:1004F8002C0500082C05000830050008F8B500BFD9
:10050800F8BC08BC9E467047F8B500BFF8BC08BCEC
:040518009E46704744
:10051C0000000000000000000102030406070809A7
:04052C00ED010008D5
:04053000C9010008F5
:040534000024F400AB
:040000050800046982
:00000001FF
