:020000040800F2
:100000000000052061040008B1040008B1040008E4
:10001000B1040008B1040008B104000800000000A9
:10002000000000000000000000000000B104000813
:10003000B104000800000000B1040008B104000889
:10004000B1040008B1040008B1040008B1040008BC
:10005000B1040008B1040008B1040008B1040008AC
:10006000B1040008B1040008B1040008B10400089C
:10007000B1040008B1040008B1040008B10400088C
:10008000B1040008B1040008B1040008B10400087C
:10009000B1040008B1040008B1040008B10400086C
:1000A000B1040008B1040008B1040008B10400085C
:1000B000B1040008B1040008B1040008B10400084C
:1000C000B1040008B1040008B1040008B10400083C
:1000D000B1040008B1040008B1040008B10400082C
:1000E000B1040008B1040008B1040008B10400081C
:1000F000B1040008B1040008B1040008B10400080C
:10010000B1040008B1040008B1040008B1040008FB
:10011000B1040008B1040008B1040008B1040008EB
:10012000B1040008B1040008B1040008B1040008DB
:10013000B1040008B1040008B1040008B1040008CB
:10014000B1040008B1040008B1040008B1040008BB
:10015000B1040008B1040008B1040008B1040008AB
:10016000B1040008B1040008B1040008B10400089B
:10017000B1040008B1040008B1040008B10400088B
:10018000B104000800000000B1040008B104000838
:10019000B1040008B1040008B1040008B10400086B
:1001A000B1040008B1040008B1040008B10400085B
:1001B000B1040008B1040008B1040008B10400084B
:0801C000B1040008B1040008BD
:1001C80010B5054C237833B9044B13B10448AFF389
:1001D80000800123237010BD0400002000000000EF
:1001E800FC04000808B5034B1BB103490348AFF3EF
:1001F800008008BD0000000008000020FC04000882
:1002080080B582B000AF00F023F80E4B1B6B0D4A8F
:1002180043F0020313630C4B1B680B4A43F00103C2
:10022800136000237B6002E07B6801337B607B689E
:10023800064A9342F8DD044B5B69034A83F00103E5
:100248005361EEE700380240000402409F86010037
:1002580080B582B000AF354B4FF0FF321A61334B97
:1002680000221A61314B4FF0FF325A612F4B0022A6
:100278005A612E4B4FF0FF321A622C4B00221A6241
:100288002A4B4FF0FF325A62284B00225A62274B02
:100298001B68264A43F00103136000BF234B1B6809
:1002A80003F00203002BF9D0204B1B681F4A23F0F0
:1002B8008073136000BF1D4B1B6803F00073002B95
:1002C800F9D11A4B194A9B68936000237B607B68BD
:1002D80043F008037B607B6843F480537B607B6852
:1002E80043F480337B60114A7B6853600F4B1B6873
:1002F8000E4A43F08073136000BF0C4B1B6803F079
:100308000073002BF9D00A4B1B68094A43F001031C
:100318001360064B9B68054A43F00203936000F0A4
:100328001BF800BF0837BD4680BD00BF003802403B
:10033800003C024080B400AF064BD3F88830054A31
:1003480043F47003C2F8883000BFBD465DF8047BF3
:10035800704700BF00ED00E080B487B000AF002315
:100368003B6100237B610223FB600023BB60022307
:100378007B60344B9B6803F00C033B613B69082BA3
:1003880011D03B69082B44D83B69002B03D03B694B
:10039800042B04D03DE02C4B2C4A1A603DE02A4B3C
:1003A8002B4A1A6039E0274B5B689B0D03F0010369
:1003B800BB60244B5B6803F03F037B60BB68002B8A
:1003C8000CD0234A7B68B2FBF3F31E4A52689209A9
:1003D800C2F3080202FB03F37B610BE01B4A7B6854
:1003E800B2FBF3F3174A52689209C2F3080202FB00
:1003F80003F37B61134B5B681B0C03F003030133AE
:100408005B00FB607A69FB68B2FBF3F30E4A13608A
:1004180003E00D4B0D4A1A6000BF0A4B9B681B098D
:1004280003F00F030B4AD35C3B61074B1A683B6927
:1004380022FA03F3044A136000BF1C37BD465DF877
:10044800047B704700380240000000200024F400BC
:1004580040787D01140500080D488546FFF76AFFBE
:100468000C480D490D4A002302E0D458C450043307
:10047800C4188C42F9D30A4A0A4C002301E01360DD
:100488000432A242FBD300F011F8FFF7B9FEFEE7F1
:100498000000052000000020040000202C050008B2
:1004A8000400002020000020FEE7000070B50D4D7C
:1004B8000D4C641BA4100026A64209D10B4D0C4C10
:1004C80000F018F8641BA4100026A64205D170BDE0
:1004D80055F8043B98470136EEE755F8043B984732
:1004E8000136F2E724050008240500082405000861
:1004F80028050008F8B500BFF8BC08BC9E46704740
:0C050800F8B500BFF8BC08BC9E46704768
:1005140000000000000000000102030406070809AF
:04052400ED010008DD
:04052800C9010008FD
:04052C000024F400B3
:04000005080004618A
:00000001FF
