:020000040800F2
:1000000000000520FD0500084D0600084D0600080B
:100010004D0600084D0600084D06000800000000CF
:100020000000000000000000000000004D06000875
:100030004D060008000000004D0600084D060008AF
:100040004D0600084D0600084D0600084D06000844
:100050004D0600084D0600084D0600084D06000834
:100060004D0600084D0600084D0600084D06000824
:100070004D0600084D0600084D0600084D06000814
:100080004D0600084D0600084D0600084D06000804
:100090004D0600084D0600084D0600084D060008F4
:1000A0004D0600084D0600084D0600084D060008E4
:1000B0004D0600084D0600084D0600084D060008D4
:1000C0004D0600084D0600084D0600084D060008C4
:1000D0004D0600084D0600084D0600084D060008B4
:1000E0004D0600084D0600084D0600084D060008A4
:1000F0004D0600084D0600084D0600084D06000894
:100100004D0600084D0600084D0600084D06000883
:100110004D0600084D0600084D0600084D06000873
:100120004D0600084D0600084D0600084D06000863
:100130004D0600084D0600084D0600084D06000853
:100140004D0600084D0600084D0600084D06000843
:100150004D0600084D0600084D0600084D06000833
:100160004D0600084D0600084D0600084D06000823
:100170004D0600084D0600084D0600084D06000813
:100180004D060008000000004D0600084D0600085E
:100190004D0600084D0600084D0600084D060008F3
:1001A0004D0600084D0600084D0600084D060008E3
:1001B0004D0600084D0600084D0600084D060008D3
:0801C0004D0600084D06000881
:1001C80010B5054C237833B9044B13B10448AFF389
:1001D80000800123237010BD0400002000000000EF
:1001E8009806000808B5034B1BB103490348AFF351
:1001F800008008BD000000000800002098060008E4
:1002080080B500AF0B4B1B6B0A4A43F00403136322
:10021800084B1B6B074A43F002031363002106488F
:1002280000F00EF803220621044800F01DF800BF74
:1002380080BD00BF003802400004024000080240B0
:1002480080B483B000AF786039607B681B68012197
:100258003A6801FA02F21A437B681A6000BF0C3749
:10026800BD465DF8047B704780B485B000AFF86088
:10027800B9607A60BB68072B0AD8FB681A6ABB6842
:100288009B00796801FA03F31A43FB681A620AE0D3
:10029800FB685A6ABB68083B9B00796801FA03F35C
:1002A8001A43FB685A62FB681B68BA68520002214D
:1002B80001FA02F21A43FB681A60FB689B68BA6885
:1002C8005200032101FA02F21A43FB689A6000BF48
:1002D8001437BD465DF8047B7047000080B582B0D6
:1002E80000AF00F019F8FFF78BFF00F049F9002381
:1002F8007B6002E07B6801337B607B68044A934241
:10030800F8DD044B5B69034A83F001035361EEE7B0
:100318009F8601000004024080B582B000AF4C4BBC
:100328004FF0FF321A614A4B00221A61484B4FF0D6
:10033800FF325A61464B00225A61454B4FF0FF325B
:100348001A62434B00221A62414B4FF0FF325A6245
:100358003F4B00225A623E4B1B6C3D4A43F0805390
:1003680013643B4B1B683A4A43F480231360384BB1
:100378001B68374A43F48033136000BF344B1B6853
:1003880003F40033002BF9D0314B1B68304A23F0BB
:100398008073136000BF2E4B1B6803F00073002BA3
:1003A800F9D12B4B9B682A4A43F4144393600023EA
:1003B8007B607B6843F480037B607B6843F01903B0
:1003C8007B607B6843F4D8437B60214A7B68536039
:1003D8001F4B1B681E4A43F08073136000BF1C4B01
:1003E8001B6803F00073002BF9D01A4B1B68194ADD
:1003F80043F48033136000BF164B5B6803F480330B
:10040800002BF9D0134B1B68124A43F400331360D6
:1004180000BF104B5B6803F40033002BF9D00E4B80
:100428001B680D4A43F00703136000BF084B1B68A5
:1004380003F00073002BF9D0054B9B68044A43F086
:100448000203936000F01CF800BF0837BD4680BD6A
:100458000038024000700040003C024080B400AF09
:10046800064BD3F88830054A43F47003C2F8883045
:1004780000BFBD465DF8047B704700BF00ED00E09B
:1004880080B487B000AF00233B6100237B61022367
:10049800FB600023BB6002237B60344B9B6803F046
:1004A8000C033B613B69082B11D03B69082B44D8EE
:1004B8003B69002B03D03B69042B04D03DE02C4B57
:1004C8002C4A1A603DE02A4B2B4A1A6039E0274B28
:1004D8005B689B0D03F00103BB60244B5B6803F072
:1004E8003F037B60BB68002B0CD0234A7B68B2FBC0
:1004F800F3F31E4A52689209C2F3080202FB03F39F
:100508007B610BE01B4A7B68B2FBF3F3174A526826
:100518009209C2F3080202FB03F37B61134B5B6889
:100528001B0C03F0030301335B00FB607A69FB6873
:10053800B2FBF3F30E4A136003E00D4B0D4A1A6049
:1005480000BF0A4B9B681B0903F00F030B4AD35CDF
:100558003B61074B1A683B6922FA03F3044A1360AC
:1005680000BF1C37BD465DF8047B70470038024069
:10057800000000200024F40040787D01B006000847
:1005880080B400AF194B5B6C184A43F00203536404
:10059800174B174A9B6A9362154BDB6A144A43F45C
:1005A8008763D362124B1B68114A43F04003136000
:1005B8000F4B1B6A0E4A43F0010313620C4B9B69F5
:1005C8000B4A43F060039361094B5B6C084A43F4A0
:1005D80000435364064B1B68054A43F0010313604C
:1005E80000BFBD465DF8047B704700BF003802407D
:1005F800000401400D488546FFF730FF0C480D49BF
:100608000D4A002302E0D458C4500433C4188C4265
:10061800F9D30A4A0A4C002301E013600432A242CB
:10062800FBD300F011F8FFF759FEFEE700000520A4
:100638000000002004000020C80600080400002074
:1006480020000020FEE7000070B50D4D0D4C641B26
:10065800A4100026A64209D10B4D0C4C00F018F846
:10066800641BA4100026A64205D170BD55F8043BB2
:1006780098470136EEE755F8043B98470136F2E70C
:10068800C0060008C0060008C0060008C406000826
:10069800F8B500BFF8BC08BC9E467047F8B500BF67
:0806A800F8BC08BC9E46704737
:1006B0000000000000000000010203040607080912
:0406C000ED01000840
:0406C400C901000860
:0406C8000024F40016
:04000005080005FDED
:00000001FF
